{
  "_format": "hh3-artifact-1",
  "contractName": "BridgeContract",
  "sourceName": "contracts/BridgeContract.sol",
  "abi": [
    {
      "inputs": [
        {
          "internalType": "bytes32",
          "name": "_gonkaChainId",
          "type": "bytes32"
        },
        {
          "internalType": "bytes32",
          "name": "_ethereumChainId",
          "type": "bytes32"
        }
      ],
      "stateMutability": "nonpayable",
      "type": "constructor"
    },
    {
      "inputs": [],
      "name": "BridgeNotOperational",
      "type": "error"
    },
    {
      "inputs": [],
      "name": "InvalidAmount",
      "type": "error"
    },
    {
      "inputs": [],
      "name": "InvalidEpoch",
      "type": "error"
    },
    {
      "inputs": [],
      "name": "InvalidEpochSequence",
      "type": "error"
    },
    {
      "inputs": [],
      "name": "InvalidSignature",
      "type": "error"
    },
    {
      "inputs": [],
      "name": "MustBeInAdminControl",
      "type": "error"
    },
    {
      "inputs": [],
      "name": "NoValidGenesisEpoch",
      "type": "error"
    },
    {
      "inputs": [],
      "name": "RequestAlreadyProcessed",
      "type": "error"
    },
    {
      "inputs": [],
      "name": "TimeoutNotReached",
      "type": "error"
    },
    {
      "anonymous": false,
      "inputs": [
        {
          "indexed": false,
          "internalType": "uint256",
          "name": "timestamp",
          "type": "uint256"
        },
        {
          "indexed": false,
          "internalType": "string",
          "name": "reason",
          "type": "string"
        }
      ],
      "name": "AdminControlActivated",
      "type": "event"
    },
    {
      "anonymous": false,
      "inputs": [
        {
          "indexed": true,
          "internalType": "address",
          "name": "owner",
          "type": "address"
        },
        {
          "indexed": true,
          "internalType": "address",
          "name": "spender",
          "type": "address"
        },
        {
          "indexed": false,
          "internalType": "uint256",
          "name": "value",
          "type": "uint256"
        }
      ],
      "name": "Approval",
      "type": "event"
    },
    {
      "anonymous": false,
      "inputs": [
        {
          "indexed": true,
          "internalType": "uint64",
          "name": "epochId",
          "type": "uint64"
        }
      ],
      "name": "EpochCleaned",
      "type": "event"
    },
    {
      "anonymous": false,
      "inputs": [
        {
          "indexed": true,
          "internalType": "uint64",
          "name": "epochId",
          "type": "uint64"
        },
        {
          "indexed": false,
          "internalType": "bytes",
          "name": "groupPublicKey",
          "type": "bytes"
        },
        {
          "indexed": false,
          "internalType": "uint256",
          "name": "timestamp",
          "type": "uint256"
        }
      ],
      "name": "GroupKeySubmitted",
      "type": "event"
    },
    {
      "anonymous": false,
      "inputs": [
        {
          "indexed": false,
          "internalType": "uint64",
          "name": "epochId",
          "type": "uint64"
        },
        {
          "indexed": false,
          "internalType": "uint256",
          "name": "timestamp",
          "type": "uint256"
        }
      ],
      "name": "NormalOperationRestored",
      "type": "event"
    },
    {
      "anonymous": false,
      "inputs": [
        {
          "indexed": true,
          "internalType": "address",
          "name": "previousOwner",
          "type": "address"
        },
        {
          "indexed": true,
          "internalType": "address",
          "name": "newOwner",
          "type": "address"
        }
      ],
      "name": "OwnershipTransferred",
      "type": "event"
    },
    {
      "anonymous": false,
      "inputs": [
        {
          "indexed": true,
          "internalType": "address",
          "name": "from",
          "type": "address"
        },
        {
          "indexed": true,
          "internalType": "address",
          "name": "to",
          "type": "address"
        },
        {
          "indexed": false,
          "internalType": "uint256",
          "name": "value",
          "type": "uint256"
        }
      ],
      "name": "Transfer",
      "type": "event"
    },
    {
      "anonymous": false,
      "inputs": [
        {
          "indexed": true,
          "internalType": "address",
          "name": "from",
          "type": "address"
        },
        {
          "indexed": false,
          "internalType": "uint256",
          "name": "amount",
          "type": "uint256"
        },
        {
          "indexed": false,
          "internalType": "uint256",
          "name": "timestamp",
          "type": "uint256"
        }
      ],
      "name": "WGNKBurned",
      "type": "event"
    },
    {
      "anonymous": false,
      "inputs": [
        {
          "indexed": true,
          "internalType": "uint64",
          "name": "epochId",
          "type": "uint64"
        },
        {
          "indexed": true,
          "internalType": "bytes32",
          "name": "requestId",
          "type": "bytes32"
        },
        {
          "indexed": true,
          "internalType": "address",
          "name": "recipient",
          "type": "address"
        },
        {
          "indexed": false,
          "internalType": "uint256",
          "name": "amount",
          "type": "uint256"
        }
      ],
      "name": "WGNKMinted",
      "type": "event"
    },
    {
      "anonymous": false,
      "inputs": [
        {
          "indexed": true,
          "internalType": "uint64",
          "name": "epochId",
          "type": "uint64"
        },
        {
          "indexed": true,
          "internalType": "bytes32",
          "name": "requestId",
          "type": "bytes32"
        },
        {
          "indexed": true,
          "internalType": "address",
          "name": "recipient",
          "type": "address"
        },
        {
          "indexed": false,
          "internalType": "address",
          "name": "tokenContract",
          "type": "address"
        },
        {
          "indexed": false,
          "internalType": "uint256",
          "name": "amount",
          "type": "uint256"
        }
      ],
      "name": "WithdrawalProcessed",
      "type": "event"
    },
    {
      "inputs": [],
      "name": "ETHEREUM_CHAIN_ID",
      "outputs": [
        {
          "internalType": "bytes32",
          "name": "",
          "type": "bytes32"
        }
      ],
      "stateMutability": "view",
      "type": "function"
    },
    {
      "inputs": [],
      "name": "GONKA_CHAIN_ID",
      "outputs": [
        {
          "internalType": "bytes32",
          "name": "",
          "type": "bytes32"
        }
      ],
      "stateMutability": "view",
      "type": "function"
    },
    {
      "inputs": [],
      "name": "MAX_STORED_EPOCHS",
      "outputs": [
        {
          "internalType": "uint64",
          "name": "",
          "type": "uint64"
        }
      ],
      "stateMutability": "view",
      "type": "function"
    },
    {
      "inputs": [],
      "name": "TIMEOUT_DURATION",
      "outputs": [
        {
          "internalType": "uint64",
          "name": "",
          "type": "uint64"
        }
      ],
      "stateMutability": "view",
      "type": "function"
    },
    {
      "inputs": [
        {
          "internalType": "address",
          "name": "owner",
          "type": "address"
        },
        {
          "internalType": "address",
          "name": "spender",
          "type": "address"
        }
      ],
      "name": "allowance",
      "outputs": [
        {
          "internalType": "uint256",
          "name": "",
          "type": "uint256"
        }
      ],
      "stateMutability": "view",
      "type": "function"
    },
    {
      "inputs": [
        {
          "internalType": "address",
          "name": "spender",
          "type": "address"
        },
        {
          "internalType": "uint256",
          "name": "amount",
          "type": "uint256"
        }
      ],
      "name": "approve",
      "outputs": [
        {
          "internalType": "bool",
          "name": "",
          "type": "bool"
        }
      ],
      "stateMutability": "nonpayable",
      "type": "function"
    },
    {
      "inputs": [
        {
          "internalType": "address",
          "name": "account",
          "type": "address"
        }
      ],
      "name": "balanceOf",
      "outputs": [
        {
          "internalType": "uint256",
          "name": "",
          "type": "uint256"
        }
      ],
      "stateMutability": "view",
      "type": "function"
    },
    {
      "inputs": [],
      "name": "checkAndHandleTimeout",
      "outputs": [],
      "stateMutability": "nonpayable",
      "type": "function"
    },
    {
      "inputs": [],
      "name": "decimals",
      "outputs": [
        {
          "internalType": "uint8",
          "name": "",
          "type": "uint8"
        }
      ],
      "stateMutability": "view",
      "type": "function"
    },
    {
      "inputs": [
        {
          "internalType": "address",
          "name": "spender",
          "type": "address"
        },
        {
          "internalType": "uint256",
          "name": "subtractedValue",
          "type": "uint256"
        }
      ],
      "name": "decreaseAllowance",
      "outputs": [
        {
          "internalType": "bool",
          "name": "",
          "type": "bool"
        }
      ],
      "stateMutability": "nonpayable",
      "type": "function"
    },
    {
      "inputs": [
        {
          "internalType": "uint64",
          "name": "",
          "type": "uint64"
        }
      ],
      "name": "epochGroupKeys",
      "outputs": [
        {
          "internalType": "bytes32",
          "name": "part0",
          "type": "bytes32"
        },
        {
          "internalType": "bytes32",
          "name": "part1",
          "type": "bytes32"
        },
        {
          "internalType": "bytes32",
          "name": "part2",
          "type": "bytes32"
        },
        {
          "internalType": "bytes32",
          "name": "part3",
          "type": "bytes32"
        },
        {
          "internalType": "bytes32",
          "name": "part4",
          "type": "bytes32"
        },
        {
          "internalType": "bytes32",
          "name": "part5",
          "type": "bytes32"
        },
        {
          "internalType": "bytes32",
          "name": "part6",
          "type": "bytes32"
        },
        {
          "internalType": "bytes32",
          "name": "part7",
          "type": "bytes32"
        }
      ],
      "stateMutability": "view",
      "type": "function"
    },
    {
      "inputs": [],
      "name": "epochMeta",
      "outputs": [
        {
          "internalType": "uint64",
          "name": "latestEpochId",
          "type": "uint64"
        },
        {
          "internalType": "uint64",
          "name": "submissionTimestamp",
          "type": "uint64"
        },
        {
          "internalType": "enum BridgeContract.ContractState",
          "name": "currentState",
          "type": "uint8"
        },
        {
          "internalType": "uint120",
          "name": "reserved",
          "type": "uint120"
        }
      ],
      "stateMutability": "view",
      "type": "function"
    },
    {
      "inputs": [
        {
          "internalType": "address",
          "name": "tokenContract",
          "type": "address"
        }
      ],
      "name": "getContractBalance",
      "outputs": [
        {
          "internalType": "uint256",
          "name": "balance",
          "type": "uint256"
        }
      ],
      "stateMutability": "view",
      "type": "function"
    },
    {
      "inputs": [],
      "name": "getCurrentState",
      "outputs": [
        {
          "internalType": "enum BridgeContract.ContractState",
          "name": "",
          "type": "uint8"
        }
      ],
      "stateMutability": "view",
      "type": "function"
    },
    {
      "inputs": [],
      "name": "getLatestEpochInfo",
      "outputs": [
        {
          "internalType": "uint64",
          "name": "epochId",
          "type": "uint64"
        },
        {
          "internalType": "uint64",
          "name": "timestamp",
          "type": "uint64"
        },
        {
          "internalType": "bytes",
          "name": "groupKey",
          "type": "bytes"
        }
      ],
      "stateMutability": "view",
      "type": "function"
    },
    {
      "inputs": [],
      "name": "getWGNKInfo",
      "outputs": [
        {
          "internalType": "string",
          "name": "tokenName",
          "type": "string"
        },
        {
          "internalType": "string",
          "name": "tokenSymbol",
          "type": "string"
        },
        {
          "internalType": "uint8",
          "name": "tokenDecimals",
          "type": "uint8"
        },
        {
          "internalType": "uint256",
          "name": "tokenTotalSupply",
          "type": "uint256"
        }
      ],
      "stateMutability": "view",
      "type": "function"
    },
    {
      "inputs": [
        {
          "internalType": "address",
          "name": "spender",
          "type": "address"
        },
        {
          "internalType": "uint256",
          "name": "addedValue",
          "type": "uint256"
        }
      ],
      "name": "increaseAllowance",
      "outputs": [
        {
          "internalType": "bool",
          "name": "",
          "type": "bool"
        }
      ],
      "stateMutability": "nonpayable",
      "type": "function"
    },
    {
      "inputs": [
        {
          "internalType": "uint64",
          "name": "epochId",
          "type": "uint64"
        },
        {
          "internalType": "bytes32",
          "name": "requestId",
          "type": "bytes32"
        }
      ],
      "name": "isRequestProcessed",
      "outputs": [
        {
          "internalType": "bool",
          "name": "",
          "type": "bool"
        }
      ],
      "stateMutability": "view",
      "type": "function"
    },
    {
      "inputs": [],
      "name": "isTimeoutReached",
      "outputs": [
        {
          "internalType": "bool",
          "name": "",
          "type": "bool"
        }
      ],
      "stateMutability": "view",
      "type": "function"
    },
    {
      "inputs": [
        {
          "internalType": "uint64",
          "name": "epochId",
          "type": "uint64"
        }
      ],
      "name": "isValidEpoch",
      "outputs": [
        {
          "internalType": "bool",
          "name": "",
          "type": "bool"
        }
      ],
      "stateMutability": "view",
      "type": "function"
    },
    {
      "inputs": [
        {
          "components": [
            {
              "internalType": "uint64",
              "name": "epochId",
              "type": "uint64"
            },
            {
              "internalType": "bytes32",
              "name": "requestId",
              "type": "bytes32"
            },
            {
              "internalType": "address",
              "name": "recipient",
              "type": "address"
            },
            {
              "internalType": "uint256",
              "name": "amount",
              "type": "uint256"
            },
            {
              "internalType": "bytes",
              "name": "signature",
              "type": "bytes"
            }
          ],
          "internalType": "struct BridgeContract.MintCommand",
          "name": "cmd",
          "type": "tuple"
        }
      ],
      "name": "mintWithSignature",
      "outputs": [],
      "stateMutability": "nonpayable",
      "type": "function"
    },
    {
      "inputs": [],
      "name": "name",
      "outputs": [
        {
          "internalType": "string",
          "name": "",
          "type": "string"
        }
      ],
      "stateMutability": "view",
      "type": "function"
    },
    {
      "inputs": [],
      "name": "owner",
      "outputs": [
        {
          "internalType": "address",
          "name": "",
          "type": "address"
        }
      ],
      "stateMutability": "view",
      "type": "function"
    },
    {
      "inputs": [
        {
          "internalType": "uint64",
          "name": "",
          "type": "uint64"
        },
        {
          "internalType": "bytes32",
          "name": "",
          "type": "bytes32"
        }
      ],
      "name": "processedRequests",
      "outputs": [
        {
          "internalType": "bool",
          "name": "",
          "type": "bool"
        }
      ],
      "stateMutability": "view",
      "type": "function"
    },
    {
      "inputs": [],
      "name": "renounceOwnership",
      "outputs": [],
      "stateMutability": "nonpayable",
      "type": "function"
    },
    {
      "inputs": [],
      "name": "resetToNormalOperation",
      "outputs": [],
      "stateMutability": "nonpayable",
      "type": "function"
    },
    {
      "inputs": [
        {
          "internalType": "uint64",
          "name": "epochId",
          "type": "uint64"
        },
        {
          "internalType": "bytes",
          "name": "groupPublicKey",
          "type": "bytes"
        }
      ],
      "name": "setGroupKey",
      "outputs": [],
      "stateMutability": "nonpayable",
      "type": "function"
    },
    {
      "inputs": [
        {
          "internalType": "uint64",
          "name": "epochId",
          "type": "uint64"
        },
        {
          "internalType": "bytes",
          "name": "groupPublicKey",
          "type": "bytes"
        },
        {
          "internalType": "bytes",
          "name": "validationSig",
          "type": "bytes"
        }
      ],
      "name": "submitGroupKey",
      "outputs": [],
      "stateMutability": "nonpayable",
      "type": "function"
    },
    {
      "inputs": [],
      "name": "symbol",
      "outputs": [
        {
          "internalType": "string",
          "name": "",
          "type": "string"
        }
      ],
      "stateMutability": "view",
      "type": "function"
    },
    {
      "inputs": [],
      "name": "totalSupply",
      "outputs": [
        {
          "internalType": "uint256",
          "name": "",
          "type": "uint256"
        }
      ],
      "stateMutability": "view",
      "type": "function"
    },
    {
      "inputs": [
        {
          "internalType": "address",
          "name": "to",
          "type": "address"
        },
        {
          "internalType": "uint256",
          "name": "amount",
          "type": "uint256"
        }
      ],
      "name": "transfer",
      "outputs": [
        {
          "internalType": "bool",
          "name": "",
          "type": "bool"
        }
      ],
      "stateMutability": "nonpayable",
      "type": "function"
    },
    {
      "inputs": [
        {
          "internalType": "address",
          "name": "from",
          "type": "address"
        },
        {
          "internalType": "address",
          "name": "to",
          "type": "address"
        },
        {
          "internalType": "uint256",
          "name": "amount",
          "type": "uint256"
        }
      ],
      "name": "transferFrom",
      "outputs": [
        {
          "internalType": "bool",
          "name": "",
          "type": "bool"
        }
      ],
      "stateMutability": "nonpayable",
      "type": "function"
    },
    {
      "inputs": [
        {
          "internalType": "address",
          "name": "newOwner",
          "type": "address"
        }
      ],
      "name": "transferOwnership",
      "outputs": [],
      "stateMutability": "nonpayable",
      "type": "function"
    },
    {
      "inputs": [
        {
          "components": [
            {
              "internalType": "uint64",
              "name": "epochId",
              "type": "uint64"
            },
            {
              "internalType": "bytes32",
              "name": "requestId",
              "type": "bytes32"
            },
            {
              "internalType": "address",
              "name": "recipient",
              "type": "address"
            },
            {
              "internalType": "address",
              "name": "tokenContract",
              "type": "address"
            },
            {
              "internalType": "uint256",
              "name": "amount",
              "type": "uint256"
            },
            {
              "internalType": "bytes",
              "name": "signature",
              "type": "bytes"
            }
          ],
          "internalType": "struct BridgeContract.WithdrawalCommand",
          "name": "cmd",
          "type": "tuple"
        }
      ],
      "name": "withdraw",
      "outputs": [],
      "stateMutability": "nonpayable",
      "type": "function"
    },
    {
      "stateMutability": "payable",
      "type": "receive"
    }
  ],
  "bytecode": "0x60c06040523480156200001157600080fd5b5060405162003b1d38038062003b1d833981016040819052620000349162000144565b6040518060400160405280600d81526020016c5772617070656420476f6e6b6160981b8152506040518060400160405280600481526020016357474e4b60e01b81525081600390816200008891906200020e565b5060046200009782826200020e565b505050620000b4620000ae620000ee60201b60201c565b620000f2565b600160065560809190915260a052600980546001600160881b031916680100000000000000006001600160401b03421602179055620002da565b3390565b600580546001600160a01b038381166001600160a01b0319831681179093556040519116919082907f8be0079c531659141344cd1fd0a4f28419497f9722a3daafe3b4186f6b6457e090600090a35050565b600080604083850312156200015857600080fd5b505080516020909101519092909150565b634e487b7160e01b600052604160045260246000fd5b600181811c908216806200019457607f821691505b602082108103620001b557634e487b7160e01b600052602260045260246000fd5b50919050565b601f8211156200020957600081815260208120601f850160051c81016020861015620001e45750805b601f850160051c820191505b818110156200020557828155600101620001f0565b5050505b505050565b81516001600160401b038111156200022a576200022a62000169565b62000242816200023b84546200017f565b84620001bb565b602080601f8311600181146200027a5760008415620002615750858301515b600019600386901b1c1916600185901b17855562000205565b600085815260208120601f198616915b82811015620002ab578886015182559484019460019091019084016200028a565b5085821015620002ca5787850151600019600388901b60f8161c191681555b5050505050600190811b01905550565b60805160a0516137fa62000323600039600081816102d701528181610f190152611b8301526000818161070f01528181610ef301528181611b5d015261276701526137fa6000f3fe6080604052600436106101fd5760003560e01c80638e7991aa1161010d578063c1e4eccd116100a0578063dd62ed3e1161006f578063dd62ed3e146106dd578063df67e318146106fd578063e908154e14610731578063eaf7ac9f14610746578063f2fde38b1461075d57600080fd5b8063c1e4eccd14610572578063c633094e146105a0578063dc9d737c146105e6578063dce67dfb1461063f57600080fd5b8063a9059cbb116100dc578063a9059cbb14610508578063a90f5cc514610528578063b7c9e84a1461053d578063bafe519e1461055d57600080fd5b80638e7991aa1461047857806395d89b41146104b3578063969731f6146104c8578063a457c2d7146104e857600080fd5b8063378aa7011161019057806370a082311161015f57806370a08231146103c057806370a1f3e9146103f6578063715018a61461041657806375a284441461042b5780638da5cb5b1461045057600080fd5b8063378aa70114610335578063395093511461035c57806343ab265f1461037c578063569b74461461039c57600080fd5b80631a5dbca2116101cc5780631a5dbca2146102a55780631dac56d3146102c557806323b872dd146102f9578063313ce5671461031957600080fd5b806306fdde0314610209578063095ea7b3146102345780630d2395951461026457806318160ddd1461028657600080fd5b3661020457005b600080fd5b34801561021557600080fd5b5061021e61077d565b60405161022b9190613015565b60405180910390f35b34801561024057600080fd5b5061025461024f36600461303f565b61080f565b604051901515815260200161022b565b34801561027057600080fd5b5061028461027f3660046130c8565b610829565b005b34801561029257600080fd5b506002545b60405190815260200161022b565b3480156102b157600080fd5b506102546102c036600461311a565b610ad0565b3480156102d157600080fd5b506102977f000000000000000000000000000000000000000000000000000000000000000081565b34801561030557600080fd5b50610254610314366004613135565b610b51565b34801561032557600080fd5b506040516009815260200161022b565b34801561034157600080fd5b50600954600160801b900460ff1660405161022b91906131a9565b34801561036857600080fd5b5061025461037736600461303f565b610c16565b34801561038857600080fd5b506102976103973660046131b7565b610c38565b3480156103a857600080fd5b506103b1610cbe565b60405161022b939291906131d2565b3480156103cc57600080fd5b506102976103db3660046131b7565b6001600160a01b031660009081526020819052604090205490565b34801561040257600080fd5b50610284610411366004613207565b610d57565b34801561042257600080fd5b506102846112af565b34801561043757600080fd5b506104406112c3565b60405161022b9493929190613241565b34801561045c57600080fd5b506005546040516001600160a01b03909116815260200161022b565b34801561048457600080fd5b5061025461049336600461327d565b600860209081526000928352604080842090915290825290205460ff1681565b3480156104bf57600080fd5b5061021e6112ec565b3480156104d457600080fd5b506102846104e3366004613299565b6112fb565b3480156104f457600080fd5b5061025461050336600461303f565b6117c3565b34801561051457600080fd5b5061025461052336600461303f565b611849565b34801561053457600080fd5b506102846118f6565b34801561054957600080fd5b50610284610558366004613319565b6119c1565b34801561056957600080fd5b50610284611d51565b34801561057e57600080fd5b5061058861016d81565b6040516001600160401b03909116815260200161022b565b3480156105ac57600080fd5b506102546105bb36600461327d565b6001600160401b03919091166000908152600860209081526040808320938352929052205460ff1690565b3480156105f257600080fd5b5060095461062f906001600160401b0380821691600160401b810490911690600160801b810460ff1690600160881b90046001600160781b031684565b60405161022b9493929190613353565b34801561064b57600080fd5b506106a261065a36600461311a565b60076020528060005260406000206000915090508060000154908060010154908060020154908060030154908060040154908060050154908060060154908060070154905088565b604080519889526020890197909752958701949094526060860192909252608085015260a084015260c083015260e08201526101000161022b565b3480156106e957600080fd5b506102976106f8366004613390565b611dd9565b34801561070957600080fd5b506102977f000000000000000000000000000000000000000000000000000000000000000081565b34801561073d57600080fd5b50610254611e04565b34801561075257600080fd5b5061058862278d0081565b34801561076957600080fd5b506102846107783660046131b7565b611e2f565b60606003805461078c906133c3565b80601f01602080910402602001604051908101604052809291908181526020018280546107b8906133c3565b80156108055780601f106107da57610100808354040283529160200191610805565b820191906000526020600020905b8154815290600101906020018083116107e857829003601f168201915b5050505050905090565b60003361081d818585611ea5565b60019150505b92915050565b610831611fca565b6000600954600160801b900460ff16600181111561085157610851613171565b1461086f576040516313a5532560e31b815260040160405180910390fd5b600954610886906001600160401b03166001613413565b6001600160401b0316836001600160401b031610156108b857604051634ee7e02960e01b815260040160405180910390fd5b61010081146108e25760405162461bcd60e51b81526004016108d99061343a565b60405180910390fd5b600061092383838080601f01602080910402602001604051908101604052809392919081815260200183838082843760009201919091525061202492505050565b90508060076000866001600160401b03166001600160401b03168152602001908152602001600020600082015181600001556020820151816001015560408201518160020155606082015181600301556080820151816004015560a0820151816005015560c0820151816006015560e082015181600701559050506040518060800160405280856001600160401b03168152602001426001600160401b03168152602001600960000160109054906101000a900460ff1660018111156109eb576109eb613171565b81526000602091820152815160098054928401516001600160401b03908116600160401b026001600160801b031990941692169190911791909117808255604083015190829060ff60801b1916600160801b836001811115610a4f57610a4f613171565b02179055506060919091015181546001600160781b03909116600160881b026001600160881b03909116179055610a8584612115565b836001600160401b03167f3b85caab754471c686bc1a1c30860e08ca93b790cdc0d8710054f4714a8ef46d848442604051610ac293929190613471565b60405180910390a250505050565b6001600160401b0381166000908152600760208181526040808420815161010081018352815481526001820154938101939093526002810154918301919091526003810154606083015260048101546080830152600581015460a0830152600681015460c08301529091015460e0820152610b4a906121b4565b1592915050565b6000306001600160a01b03841603610c01576001600954600160801b900460ff166001811115610b8357610b83613171565b14610ba1576040516313a2f69760e11b815260040160405180910390fd5b610bac84338461221e565b610bb68483612298565b604080518381524260208201526001600160a01b038616917ffb696c860977f5b3477b086320086e217dea8796195e69eae1ba39b331f33e4f910160405180910390a2506001610c0f565b610c0c8484846123c7565b90505b9392505050565b60003361081d818585610c298383611dd9565b610c3391906134aa565b611ea5565b6000306001600160a01b03831603610c51575047919050565b6040516370a0823160e01b81523060048201526001600160a01b038316906370a0823190602401602060405180830381865afa158015610c95573d6000803e3d6000fd5b505050506040513d601f19601f8201168201806040525081019061082391906134bd565b919050565b6009546001600160401b0380821660008181526007602081815260409283902083516101008101855281548152600182015492810192909252600281015493820193909352600383015460608281019190915260048401546080830152600584015460a0830152600684015460c0830152929091015460e08201529193600160401b90049092169190610d50906123e0565b9050909192565b610d5f61245f565b6001600954600160801b900460ff166001811115610d7f57610d7f613171565b14610d9d576040516313a2f69760e11b815260040160405180910390fd5b8060800135600003610dc25760405163162908e360e11b815260040160405180910390fd5b6000600781610dd4602085018561311a565b6001600160401b03166001600160401b0316815260200190815260200160002060405180610100016040529081600082015481526020016001820154815260200160028201548152602001600382015481526020016004820154815260200160058201548152602001600682015481526020016007820154815250509050610e5b816121b4565b15610e795760405163d5b25b6360e01b815260040160405180910390fd5b6000610e84826123e0565b905060086000610e97602086018661311a565b6001600160401b031681526020808201929092526040908101600090812086840135825290925290205460ff1615610ee2576040516329af1d3160e21b815260040160405180910390fd5b6000610ef1602085018561311a565b7f000000000000000000000000000000000000000000000000000000000000000060208601357f00000000000000000000000000000000000000000000000000000000000000007f5b2b3dbc0425e650141ab8840d86d0c9f083f7ddc44122d0056e9fb6b9797222610f6960608a0160408b016131b7565b30610f7a60808c0160608d016131b7565b60405160c09890981b6001600160c01b03191660208901526028880196909652604887019490945260688601929092526088850152606090811b6bffffffffffffffffffffffff1990811660a886015291811b821660bc8501529190911b1660d0820152608085013560e48201526101040160408051601f1981840301815291905280516020909101209050611052828261101860a08801886134d6565b8080601f0160208091040260200160405190810160405280939291908181526020018383808284376000920191909152506124b892505050565b61106f57604051638baa579f60e01b815260040160405180910390fd5b600160086000611082602088018861311a565b6001600160401b03168152602080820192909252604090810160009081208884013582529092529020805460ff1916911515919091179055306110cb60808601606087016131b7565b6001600160a01b0316036111df57836080013547101561112d5760405162461bcd60e51b815260206004820152601860248201527f496e73756666696369656e74204554482062616c616e6365000000000000000060448201526064016108d9565b600061113f60608601604087016131b7565b6001600160a01b0316856080013560405160006040518083038185875af1925050503d806000811461118d576040519150601f19603f3d011682016040523d82523d6000602084013e611192565b606091505b50509050806111d95760405162461bcd60e51b8152602060048201526013602482015272115512081d1c985b9cd9995c8819985a5b1959606a1b60448201526064016108d9565b50611216565b6112166111f260608601604087016131b7565b6080860180359061120690606089016131b7565b6001600160a01b03169190612623565b61122660608501604086016131b7565b6001600160a01b031660208501803590611240908761311a565b6001600160401b03167f358cb7c5d3fd5a8a6a1e7202a2a7c1571d47515083c8e4fb4f3d69d8e73f236961127a6080890160608a016131b7565b604080516001600160a01b03909216825260808a01356020830152015b60405180910390a45050506112ac6001600655565b50565b6112b7611fca565b6112c16000612675565b565b6060806000806112d161077d565b6112d96112ec565b6009600254935093509350935090919293565b60606004805461078c906133c3565b6001600954600160801b900460ff16600181111561131b5761131b613171565b14611339576040516313a2f69760e11b815260040160405180910390fd5b6001856001600160401b0316116113925760405162461bcd60e51b815260206004820152601d60248201527f45706f63682031206d75737420626520736574207669612041646d696e00000060448201526064016108d9565b6009546113a9906001600160401b03166001613413565b6001600160401b0316856001600160401b0316146113da57604051634ee7e02960e01b815260040160405180910390fd5b6001856001600160401b0316116114335760405162461bcd60e51b815260206004820152601d60248201527f45706f63682031206d75737420626520736574207669612041646d696e00000060448201526064016108d9565b61010083146114545760405162461bcd60e51b81526004016108d99061343a565b600061149585858080601f01602080910402602001604051908101604052809392919081815260200183838082843760009201919091525061202492505050565b905060006007816114a760018a61351c565b6001600160401b03166001600160401b031681526020019081526020016000206040518061010001604052908160008201548152602001600182015481526020016002820154815260200160038201548152602001600482015481526020016005820154815260200160068201548152602001600782015481525050905061152e816121b4565b1561157b5760405162461bcd60e51b815260206004820152601860248201527f50726576696f75732065706f6368206e6f7420666f756e64000000000000000060448201526064016108d9565b6115c9818386868080601f0160208091040260200160405190810160405280939291908181526020018383808284376000920191909152506115c49250600191508d905061351c565b6126c7565b6116155760405162461bcd60e51b815260206004820152601c60248201527f496e76616c6964207472616e736974696f6e207369676e61747572650000000060448201526064016108d9565b8160076000896001600160401b03166001600160401b03168152602001908152602001600020600082015181600001556020820151816001015560408201518160020155606082015181600301556080820151816004015560a0820151816005015560c0820151816006015560e082015181600701559050506040518060800160405280886001600160401b03168152602001426001600160401b03168152602001600960000160109054906101000a900460ff1660018111156116db576116db613171565b81526000602091820152815160098054928401516001600160401b03908116600160401b026001600160801b031990941692169190911791909117808255604083015190829060ff60801b1916600160801b83600181111561173f5761173f613171565b02179055506060919091015181546001600160781b03909116600160881b026001600160881b0390911617905561177587612115565b866001600160401b03167f3b85caab754471c686bc1a1c30860e08ca93b790cdc0d8710054f4714a8ef46d8787426040516117b293929190613471565b60405180910390a250505050505050565b600033816117d18286611dd9565b9050838110156118315760405162461bcd60e51b815260206004820152602560248201527f45524332303a2064656372656173656420616c6c6f77616e63652062656c6f77604482015264207a65726f60d81b60648201526084016108d9565b61183e8286868403611ea5565b506001949350505050565b6000306001600160a01b038416036118e5576001600954600160801b900460ff16600181111561187b5761187b613171565b14611899576040516313a2f69760e11b815260040160405180910390fd5b6118a33383612298565b6040805183815242602082015233917ffb696c860977f5b3477b086320086e217dea8796195e69eae1ba39b331f33e4f910160405180910390a2506001610823565b6118ef8383612811565b9050610823565b6118fe611fca565b6000600954600160801b900460ff16600181111561191e5761191e613171565b1461193c576040516313a5532560e31b815260040160405180910390fd5b6009546001600160401b0316600003611968576040516344aaaa3960e11b815260040160405180910390fd5b60098054600160801b60ff60801b19821617909155604080516001600160401b0390921682524260208301527f342608730d5af33ab2a9d84fa6b218a2c8cf88af4c5d9540b2ad4d81f4740c2d910160405180910390a1565b6119c961245f565b6001600954600160801b900460ff1660018111156119e9576119e9613171565b14611a07576040516313a2f69760e11b815260040160405180910390fd5b8060600135600003611a2c5760405163162908e360e11b815260040160405180910390fd5b6000600781611a3e602085018561311a565b6001600160401b03166001600160401b0316815260200190815260200160002060405180610100016040529081600082015481526020016001820154815260200160028201548152602001600382015481526020016004820154815260200160058201548152602001600682015481526020016007820154815250509050611ac5816121b4565b15611ae35760405163d5b25b6360e01b815260040160405180910390fd5b6000611aee826123e0565b905060086000611b01602086018661311a565b6001600160401b031681526020808201929092526040908101600090812086840135825290925290205460ff1615611b4c576040516329af1d3160e21b815260040160405180910390fd5b6000611b5b602085018561311a565b7f000000000000000000000000000000000000000000000000000000000000000060208601357f00000000000000000000000000000000000000000000000000000000000000007f0ac5e554011e1786f5073f24307bd6d628be3409834b2a88a07dfc5af9b372ee611bd360608a0160408b016131b7565b60405160c09690961b6001600160c01b03191660208701526028860194909452604885019290925260688401526088830152606090811b6bffffffffffffffffffffffff1990811660a884015230821b1660bc83015285013560d082015260f00160408051601f1981840301815291905280516020909101209050611c60828261101860808801886134d6565b611c7d57604051638baa579f60e01b815260040160405180910390fd5b600160086000611c90602088018861311a565b6001600160401b031681526020808201929092526040908101600090812088840135825290925290819020805460ff191692151592909217909155611ce990611cdf90606087019087016131b7565b856060013561281f565b611cf960608501604086016131b7565b6001600160a01b031660208501803590611d13908761311a565b6001600160401b03167f6442a4f70e05dd24cec271c3b349fc9f1004f398824c44660ddf01298068f82b876060013560405161129791815260200190565b6001600954600160801b900460ff166001811115611d7157611d71613171565b14611d7857565b60095462278d0090611d9a90600160401b90046001600160401b03164261353c565b11611db8576040516326c015ab60e21b815260040160405180910390fd5b6112c1604051806060016040528060228152602001613763602291396128de565b6001600160a01b03918216600090815260016020908152604080832093909416825291909152205490565b60095460009062278d0090611e2990600160401b90046001600160401b03164261353c565b11905090565b611e37611fca565b6001600160a01b038116611e9c5760405162461bcd60e51b815260206004820152602660248201527f4f776e61626c653a206e6577206f776e657220697320746865207a65726f206160448201526564647265737360d01b60648201526084016108d9565b6112ac81612675565b6001600160a01b038316611f075760405162461bcd60e51b8152602060048201526024808201527f45524332303a20617070726f76652066726f6d20746865207a65726f206164646044820152637265737360e01b60648201526084016108d9565b6001600160a01b038216611f685760405162461bcd60e51b815260206004820152602260248201527f45524332303a20617070726f766520746f20746865207a65726f206164647265604482015261737360f01b60648201526084016108d9565b6001600160a01b0383811660008181526001602090815260408083209487168084529482529182902085905590518481527f8c5be1e5ebec7d5bd14f71427d1e84f3dd0314c0f7b2291e5b200ac8c7c3b92591015b60405180910390a3505050565b6005546001600160a01b031633146112c15760405162461bcd60e51b815260206004820181905260248201527f4f776e61626c653a2063616c6c6572206973206e6f7420746865206f776e657260448201526064016108d9565b6040805161010081018252600080825260208201819052918101829052606081018290526080810182905260a0810182905260c0810182905260e08101919091528151610100146120875760405162461bcd60e51b81526004016108d99061343a565b60008060008060008060008060208a0151975060408a0151965060608a0151955060808a0151945060a08a0151935060c08a0151925060e08a015191506101008a015190506040518061010001604052808981526020018881526020018781526020018681526020018581526020018481526020018381526020018281525098505050505050505050919050565b61016d6001600160401b0382161161212a5750565b600061213861016d8361351c565b6001600160401b03811660008181526007602081905260408083208381556001810184905560028101849055600381018490556004810184905560058101849055600681018490559091018290555192935090917f33a5ce763bc4eada8bb0595f38120c3a08d31917c46dbf2e909af9ae52e801b49190a25050565b80516000901580156121c857506020820151155b80156121d657506040820151155b80156121e457506060820151155b80156121f257506080820151155b8015612200575060a0820151155b801561220e575060c0820151155b801561082357505060e001511590565b600061222a8484611dd9565b9050600019811461229257818110156122855760405162461bcd60e51b815260206004820152601d60248201527f45524332303a20696e73756666696369656e7420616c6c6f77616e636500000060448201526064016108d9565b6122928484848403611ea5565b50505050565b6001600160a01b0382166122f85760405162461bcd60e51b815260206004820152602160248201527f45524332303a206275726e2066726f6d20746865207a65726f206164647265736044820152607360f81b60648201526084016108d9565b6001600160a01b0382166000908152602081905260409020548181101561236c5760405162461bcd60e51b815260206004820152602260248201527f45524332303a206275726e20616d6f756e7420657863656564732062616c616e604482015261636560f01b60648201526084016108d9565b6001600160a01b0383166000818152602081815260408083208686039055600280548790039055518581529192917fddf252ad1be2c89b69c2b068fc378daa952ba7f163c4a11628f55a4df523b3ef9101611fbd565b505050565b6000336123d585828561221e565b61183e858585612928565b6040805161010080825261012082019092526060916000919060208201818036833701905050905082516020820152602083015160408201526040830151606082015260608301516080820152608083015160a082015260a083015160c082015260c083015160e082015260e083015161010082015280915050919050565b6002600654036124b15760405162461bcd60e51b815260206004820152601f60248201527f5265656e7472616e637947756172643a207265656e7472616e742063616c6c0060448201526064016108d9565b6002600655565b60008351610100146124dc5760405162461bcd60e51b81526004016108d99061343a565b815160801461252d5760405162461bcd60e51b815260206004820152601860248201527f496e76616c6964207369676e6174757265206c656e677468000000000000000060448201526064016108d9565b600061253884612acc565b9050600061254582612ba5565b905060008460405180610120016040528061010081526020016136636101009139838960405160200161257b949392919061354f565b6040516020818303038152906040529050600080600f6001600160a01b0316836040516125a891906135a6565b600060405180830381855afa9150503d80600081146125e3576040519150601f19603f3d011682016040523d82523d6000602084013e6125e8565b606091505b50915091508180156125fb575080516020145b801561261657508080602001905181019061261691906135c2565b9998505050505050505050565b604080516001600160a01b038416602482015260448082018490528251808303909101815260649091019091526020810180516001600160e01b031663a9059cbb60e01b1790526123c2908490612dcd565b600580546001600160a01b038381166001600160a01b0319831681179093556040519116919082907f8be0079c531659141344cd1fd0a4f28419497f9722a3daafe3b4186f6b6457e090600090a35050565b600082516080146127265760405162461bcd60e51b815260206004820152602360248201527f496e76616c69642076616c69646174696f6e207369676e6174757265206c656e6044820152620cee8d60eb1b60648201526084016108d9565b8351602080860151604080880151606089015160808a015160a08b015160c0808d015160e08e01519651918c901b6001600160c01b031916988201989098527f00000000000000000000000000000000000000000000000000000000000000006028820181905260488201999099526068810196909652608886019390935260a885019190915260c884015260e88301526101088201929092526101288101919091526000906101480160408051601f198184030181529190528051602082012090915060006127f5896123e0565b90506128028183896124b8565b9450505050505b949350505050565b60003361081d818585612928565b6001600160a01b0382166128755760405162461bcd60e51b815260206004820152601f60248201527f45524332303a206d696e7420746f20746865207a65726f20616464726573730060448201526064016108d9565b806002600082825461288791906134aa565b90915550506001600160a01b038216600081815260208181526040808320805486019055518481527fddf252ad1be2c89b69c2b068fc378daa952ba7f163c4a11628f55a4df523b3ef910160405180910390a35050565b6009805460ff60801b191690556040517fb35d8d59de3fc51752ce745c2fe4b445e0b669bae80d730d32a8dfe18a699feb9061291d90429084906135e4565b60405180910390a150565b6001600160a01b03831661298c5760405162461bcd60e51b815260206004820152602560248201527f45524332303a207472616e736665722066726f6d20746865207a65726f206164604482015264647265737360d81b60648201526084016108d9565b6001600160a01b0382166129ee5760405162461bcd60e51b815260206004820152602360248201527f45524332303a207472616e7366657220746f20746865207a65726f206164647260448201526265737360e81b60648201526084016108d9565b6001600160a01b03831660009081526020819052604090205481811015612a665760405162461bcd60e51b815260206004820152602660248201527f45524332303a207472616e7366657220616d6f756e7420657863656564732062604482015265616c616e636560d01b60648201526084016108d9565b6001600160a01b03848116600081815260208181526040808320878703905593871680835291849020805487019055925185815290927fddf252ad1be2c89b69c2b068fc378daa952ba7f163c4a11628f55a4df523b3ef910160405180910390a3612292565b6040805181815260608181018352916000919060208201818036833701905050905082604082015260008060106001600160a01b031683604051612b1091906135a6565b600060405180830381855afa9150503d8060008114612b4b576040519150601f19603f3d011682016040523d82523d6000602084013e612b50565b606091505b5091509150818015612b63575080516080145b6128095760405162461bcd60e51b815260206004820152601360248201527213505417d19417d513d7d1cc4819985a5b1959606a1b60448201526064016108d9565b60608151608014612bec5760405162461bcd60e51b8152602060048201526011602482015270092dcecc2d8d2c8408e6240d8cadccee8d607b1b60448201526064016108d9565b60408051608080825260a0820190925260009160208201818036833701905050905060005b6040811015612c7257838181518110612c2c57612c2c6135fd565b602001015160f81c60f81b828281518110612c4957612c496135fd565b60200101906001600160f81b031916908160001a90535080612c6a81613613565b915050612c11565b506000805b6040811015612dc4576000612c8d82603f61353c565b90506000604051806060016040528060408152602001613785604091398281518110612cbb57612cbb6135fd565b016020015160f81c9050600087612cd38460406134aa565b81518110612ce357612ce36135fd565b016020015160f81c90506000612cfc60ff87168361362c565b90508061ffff168360ff1610612d5857612d198160ff8516613647565b60f81b87612d288660406134aa565b81518110612d3857612d386135fd565b60200101906001600160f81b031916908160001a90535060009550612dad565b80612d6860ff851661010061362c565b612d729190613647565b60f81b87612d818660406134aa565b81518110612d9157612d916135fd565b60200101906001600160f81b031916908160001a905350600195505b505050508080612dbc90613613565b915050612c77565b50909392505050565b6000612e22826040518060400160405280602081526020017f5361666545524332303a206c6f772d6c6576656c2063616c6c206661696c6564815250856001600160a01b0316612ea29092919063ffffffff16565b9050805160001480612e43575080806020019051810190612e4391906135c2565b6123c25760405162461bcd60e51b815260206004820152602a60248201527f5361666545524332303a204552433230206f7065726174696f6e20646964206e6044820152691bdd081cdd58d8d9595960b21b60648201526084016108d9565b6060610c0c848460008585600080866001600160a01b03168587604051612ec991906135a6565b60006040518083038185875af1925050503d8060008114612f06576040519150601f19603f3d011682016040523d82523d6000602084013e612f0b565b606091505b5091509150612f1c87838387612f27565b979650505050505050565b60608315612f96578251600003612f8f576001600160a01b0385163b612f8f5760405162461bcd60e51b815260206004820152601d60248201527f416464726573733a2063616c6c20746f206e6f6e2d636f6e747261637400000060448201526064016108d9565b5081612809565b6128098383815115612fab5781518083602001fd5b8060405162461bcd60e51b81526004016108d99190613015565b60005b83811015612fe0578181015183820152602001612fc8565b50506000910152565b60008151808452613001816020860160208601612fc5565b601f01601f19169290920160200192915050565b602081526000610c0f6020830184612fe9565b80356001600160a01b0381168114610cb957600080fd5b6000806040838503121561305257600080fd5b61305b83613028565b946020939093013593505050565b80356001600160401b0381168114610cb957600080fd5b60008083601f84011261309257600080fd5b5081356001600160401b038111156130a957600080fd5b6020830191508360208285010111156130c157600080fd5b9250929050565b6000806000604084860312156130dd57600080fd5b6130e684613069565b925060208401356001600160401b0381111561310157600080fd5b61310d86828701613080565b9497909650939450505050565b60006020828403121561312c57600080fd5b610c0f82613069565b60008060006060848603121561314a57600080fd5b61315384613028565b925061316160208501613028565b9150604084013590509250925092565b634e487b7160e01b600052602160045260246000fd5b600281106131a557634e487b7160e01b600052602160045260246000fd5b9052565b602081016108238284613187565b6000602082840312156131c957600080fd5b610c0f82613028565b60006001600160401b038086168352808516602084015250606060408301526131fe6060830184612fe9565b95945050505050565b60006020828403121561321957600080fd5b81356001600160401b0381111561322f57600080fd5b820160c08185031215610c0f57600080fd5b6080815260006132546080830187612fe9565b82810360208401526132668187612fe9565b60ff95909516604084015250506060015292915050565b6000806040838503121561329057600080fd5b61305b83613069565b6000806000806000606086880312156132b157600080fd5b6132ba86613069565b945060208601356001600160401b03808211156132d657600080fd5b6132e289838a01613080565b909650945060408801359150808211156132fb57600080fd5b5061330888828901613080565b969995985093965092949392505050565b60006020828403121561332b57600080fd5b81356001600160401b0381111561334157600080fd5b820160a08185031215610c0f57600080fd5b6001600160401b03858116825284166020820152608081016133786040830185613187565b6001600160781b038316606083015295945050505050565b600080604083850312156133a357600080fd5b6133ac83613028565b91506133ba60208401613028565b90509250929050565b600181811c908216806133d757607f821691505b6020821081036133f757634e487b7160e01b600052602260045260246000fd5b50919050565b634e487b7160e01b600052601160045260246000fd5b6001600160401b03818116838216019080821115613433576134336133fd565b5092915050565b60208082526018908201527f496e76616c69642067726f7570206b6579206c656e6774680000000000000000604082015260600190565b604081528260408201528284606083013760006060848301015260006060601f19601f8601168301019050826020830152949350505050565b80820180821115610823576108236133fd565b6000602082840312156134cf57600080fd5b5051919050565b6000808335601e198436030181126134ed57600080fd5b8301803591506001600160401b0382111561350757600080fd5b6020019150368190038213156130c157600080fd5b6001600160401b03828116828216039080821115613433576134336133fd565b81810381811115610823576108236133fd565b60008551613561818460208a01612fc5565b855190830190613575818360208a01612fc5565b8551910190613588818360208901612fc5565b845191019061359b818360208801612fc5565b019695505050505050565b600082516135b8818460208701612fc5565b9190910192915050565b6000602082840312156135d457600080fd5b81518015158114610c0f57600080fd5b828152604060208201526000610c0c6040830184612fe9565b634e487b7160e01b600052603260045260246000fd5b600060018201613625576136256133fd565b5060010190565b61ffff818116838216019080821115613433576134336133fd565b61ffff828116828216039080821115613433576134336133fd56fe00000000000000000000000000000000024aa2b2f08f0a91260805272dc51051c6e47ad4fa403b02b4510b647ae3d1770bac0326a805bbefd48056c8c121bdb80000000000000000000000000000000013e02b6052719f607dacd3a088274f65596bd0d09920b61ab5da61bbdc7f5049334cf11213945d57e5ac7d055d042b7e000000000000000000000000000000000ce5d527727d6e118cc9cdc6da2e351aadfd9baa8cbdd3a76d429a695160d12c923ac9cc3baca289e193548608b82801000000000000000000000000000000000606c4a02ea734cc32acd2b02bc28b99cb3e287e85a763af267492ab572e99ab3f370d275cec1da1aaa9075ff05f79be54696d656f75743a204e6f206e65772065706f63687320666f722033302064617973000000000000000000000000000000001a0111ea397fe69a4b1ba7b6434bacd764774b84f38512bf6730d2a0f6b0f6241eabfffeb153ffffb9feffffffffaaaba2646970667358221220b95e48b3d76a53f6e52382bf130b7a855a11eab8c5dffcd1e1ac6d4f3679271964736f6c63430008130033",
  "linkReferences": {},
  "deployedLinkReferences": {},
  "immutableReferences": {
    "1881": [
      {
        "length": 32,
        "start": 1807
      },
      {
        "length": 32,
        "start": 3827
      },
      {
        "length": 32,
        "start": 7005
      },
      {
        "length": 32,
        "start": 10087
      }
    ],
    "1883": [
      {
        "length": 32,
        "start": 727
      },
      {
        "length": 32,
        "start": 3865
      },
      {
        "length": 32,
        "start": 7043
      }
    ]
  },
  "inputSourceName": "project/contracts/BridgeContract.sol",
  "buildInfoId": "solc-0_8_19-6a673422196d3fb07b3f74f1aa4a5fa32c0ea2de"
}